{
  "transactions": [
    {
      "hash": "0x531f55b29a681eb2614092e371f521e79b49146d3ddb9a27b3c57b4aa10b770b",
      "transactionType": "CALL",
      "contractName": null,
      "contractAddress": "0x8976ca4e0c8467097da675399fb7db454a1b56dd",
      "function": "sendNativeTokens(address)",
      "arguments": [
        "0x216E8270B9887110548F6B70CAAA453f455c2bAf"
      ],
      "transaction": {
        "from": "0x216e8270b9887110548f6b70caaa453f455c2baf",
        "to": "0x8976ca4e0c8467097da675399fb7db454a1b56dd",
        "gas": "0x2ea14",
        "value": "0x38d7ea4c68000",
        "input": "0xea3d03d4000000000000000000000000216e8270b9887110548f6b70caaa453f455c2baf",
        "nonce": "0x17db",
        "chainId": "0xaa36a7"
      },
      "additionalContracts": [],
      "isFixedGasLimit": false
    }
  ],
  "receipts": [
    {
      "status": "0x1",
      "cumulativeGasUsed": "0x10092a8",
      "logs": [
        {
          "address": "0x9cacf613fc29015893728563f423fd26dcdb8ddc",
          "topics": [
            "0x7b397c6ce16a73396390bf270a2021417ca4d97f44e82cdce3f5eb750fd34134",
            "0x0000000000000000000000008976ca4e0c8467097da675399fb7db454a1b56dd",
            "0x0000000000000000000000008976ca4e0c8467097da675399fb7db454a1b56dd"
          ],
          "data": "0x00000000000000000000000000000000000000000000000000038d7ea4c680000000000000000000000000000000000000000000000000000000000000aa36a70000000000000000000000000000000000000000000000000000000000a2dea60000000000000000000000000000000000000000000000000000000000000000d510a8858b7e9ff4866ae1acb924cec45548a18d71a05fb2e2b596a5c31075ea00000000000000000000000000000000000000000000000000000000000000c00000000000000000000000000000000000000000000000000000000000000064b9cca7a3000000000000000000000000216e8270b9887110548f6b70caaa453f455c2baf000000000000000000000000216e8270b9887110548f6b70caaa453f455c2baf00000000000000000000000000000000000000000000000000038d7ea4c6800000000000000000000000000000000000000000000000000000000000",
          "blockHash": "0xcf28b922e529d9da3ac9eabc5c1df04013e7b0e76318a9bdfff424342f24549c",
          "blockNumber": "0xa2c286",
          "blockTimestamp": "0x69dfe54c",
          "transactionHash": "0x531f55b29a681eb2614092e371f521e79b49146d3ddb9a27b3c57b4aa10b770b",
          "transactionIndex": "0x5d",
          "logIndex": "0x174",
          "removed": false
        }
      ],
      "logsBloom": "0x00000000000000000080000000000000000000000000200000000000000000000000000000002000000000000000000000000000000000000000000000000000000000000080000000000000000000800000100000000000000000000000000000000001000000000000000000000000000000000000000000000000008000000000000000000000000000000000000000000000000000000000000000000000000000000000000000000000000000000000000000000000000000000000001000000000000000000000000000000000000000000000000000000000000000000000000000000000000000000000000000000000000000000000000000000000",
      "type": "0x2",
      "transactionHash": "0x531f55b29a681eb2614092e371f521e79b49146d3ddb9a27b3c57b4aa10b770b",
      "transactionIndex": "0x5d",
      "blockHash": "0xcf28b922e529d9da3ac9eabc5c1df04013e7b0e76318a9bdfff424342f24549c",
      "blockNumber": "0xa2c286",
      "gasUsed": "0x21c26",
      "effectiveGasPrice": "0x3b31b9",
      "from": "0x216e8270b9887110548f6b70caaa453f455c2baf",
      "to": "0x8976ca4e0c8467097da675399fb7db454a1b56dd",
      "contractAddress": null
    }
  ],
  "libraries": [],
  "pending": [],
  "returns": {},
  "timestamp": 1776280910558,
  "chain": 11155111,
  "commit": "8d77ea7"
}
