{
  "transactions": [
    {
      "hash": "0x49712d91bcac195303cb3b49ce16c47e6c419f1d8c5cbfe638e0b7d595290ae9",
      "transactionType": "CREATE",
      "contractName": "NitroVerifier",
      "contractAddress": "0xba3d3b60b6f462aa3fb2d63f8b610fa8825c3019",
      "function": null,
      "arguments": [
        "0x397A5f7f3dBd538f23DE225B51f532c34448dA9B",
        "0x9ec3f0d76A6d3847d86374c791C6E170CAd9518D"
      ],
      "transaction": {
        "from": "0x9ec3f0d76a6d3847d86374c791c6e170cad9518d",
        "gas": "0xeae29",
        "value": "0x0",
        "input": "0x60a0346100b557601f610d6538819003918201601f19168301916001600160401b038311848410176100b95780849260409485528339810103126100b557610052602061004b836100cd565b92016100cd565b6001600160a01b0382161515806100a3575b1561009457610075916080526100e1565b50604051610bda908161016b823960805181818160e301526102830152f35b63d92e233d60e01b5f5260045ffd5b506001600160a01b0381161515610064565b5f80fd5b634e487b7160e01b5f52604160045260245ffd5b51906001600160a01b03821682036100b557565b6001600160a01b0381165f9081525f516020610d455f395f51905f52602052604090205460ff16610165576001600160a01b03165f8181525f516020610d455f395f51905f5260205260408120805460ff191660011790553391907f2f8788117e7eff1d82e926ec794901d17c78024a50270940304540a733656f0d8180a4600190565b505f9056fe6080806040526004361015610012575f80fd5b5f905f3560e01c90816301ffc9a71461082257508063248a9ca3146107f05780632f2ff15d146107b357806336568abe1461076d5780634fa1ecc614610733578063628dbf521461059657806365dd46811461053857806391d14854146104f05780639ab0dca5146104675780639aec990e1461044b578063a217fddf14610431578063b5df2e34146101b9578063c54abfa71461019b578063d547741f14610154578063e1f08fd5146101155763f8bf2d5f146100ce575f80fd5b346101125780600319360112610112576040517f00000000000000000000000000000000000000000000000000000000000000006001600160a01b03168152602090f35b80fd5b50346101125760203660031901126101125760209060ff906040906001600160a01b0361014061088b565b168152600284522054166040519015158152f35b503461011257604036600319011261011257610197600435610174610875565b9061019261018d825f525f602052600160405f20015490565b61093e565b6109fe565b5080f35b50346101125780600319360112610112576020600154604051908152f35b50346103ad5760603660031901126103ad576101d361088b565b6024356001600160401b0381168091036103ad576044356001600160401b0381116103ad576102069036906004016108a1565b335f9081527f41c59c1a00b79b7d6ed9e47f70e10ddb54adc46796b882d18ee5d5c82922320b60205260409020549193909160ff16156103fa576001600160a01b03169283156103eb57835f52600260205260ff60405f2054166103dc5761a8c083018084116103c85742116103b1576001549260018060a01b037f0000000000000000000000000000000000000000000000000000000000000000166040519160208301908782526040840152604083526102c36060846108ce565b813b156103ad576020859360845f966040519889978896879563020a49e360e51b87528d6004880152606060248801525180918160648901528688015e85810185018b9052601f01601f1916850185810385016003190160448701528085018290529260a484013781810183018501899052601f01601f191601010301915afa80156103a25761038d575b50818352600260205260408320805460ff191660011790557fe8f6f3e7cded218dea45aee4b379dc5a2b0c31cab04dc0501594054a866e37ba8380a380f35b61039a9193505f906108ce565b5f915f61034e565b6040513d5f823e3d90fd5b5f80fd5b8263359efb4960e11b5f526004524260245260445ffd5b634e487b7160e01b5f52601160045260245ffd5b631595b31b60e01b5f5260045ffd5b63d92e233d60e01b5f5260045ffd5b63e2517d3f60e01b5f52336004527f8ef080a880cc993d59a173671ed4d7390170750145f20a40ac3d6873cd70a64360245260445ffd5b346103ad575f3660031901126103ad5760206040515f8152f35b346103ad575f3660031901126103ad57602060405161a8c08152f35b346103ad5760203660031901126103ad5761048061088b565b6104886108ef565b6001600160a01b03165f8181526002602052604090205460ff16156104e157805f52600260205260405f2060ff1981541690557f7f1464b9974f3e235177f6207caf769b11f3e7baf0f42b563023c5ab646ffde75f80a2005b6302b2570360e41b5f5260045ffd5b346103ad5760403660031901126103ad57610509610875565b6004355f525f60205260405f209060018060a01b03165f52602052602060ff60405f2054166040519015158152f35b346103ad5760203660031901126103ad576004356105546108ef565b801561058757600154816001557f480c35d32629463918e991003dbec2e840445024d97973dac0ad40dd686d20965f80a3005b6367201ee960e11b5f5260045ffd5b346103ad5760603660031901126103ad576024356001600160401b0381116103ad57366023820112156103ad5780600401356001600160401b0381116103ad578060051b9136602484830101116103ad576044356001600160401b0381116103ad576106069036906004016108a1565b9390926041850361072457604051602081019146835230604083015260043560608301526080808301528060a083015260018060fb1b03106103ad5761066660c082855f966024602099018484013781010301601f1981018352826108ce565b604051918291518091835e8101838152039060025afa156103a2575f516001600160401b03831161071057604051906106a9601f8501601f1916602001836108ce565b83825236848401116103ad575f6020856106d7966106ce968387013784010152610a7e565b90929192610ab8565b6001600160a01b03165f8181526002602052604090205460ff161561070157602090604051908152f35b63203fccd160e01b5f5260045ffd5b634e487b7160e01b5f52604160045260245ffd5b634be6321b60e01b5f5260045ffd5b346103ad575f3660031901126103ad5760206040517f8ef080a880cc993d59a173671ed4d7390170750145f20a40ac3d6873cd70a6438152f35b346103ad5760403660031901126103ad57610786610875565b336001600160a01b038216036107a4576107a2906004356109fe565b005b63334bd91960e11b5f5260045ffd5b346103ad5760403660031901126103ad576107a26004356107d2610875565b906107eb61018d825f525f602052600160405f20015490565b610976565b346103ad5760203660031901126103ad57602061081a6004355f525f602052600160405f20015490565b604051908152f35b346103ad5760203660031901126103ad576004359063ffffffff60e01b82168092036103ad57602091637965db0b60e01b8114908115610864575b5015158152f35b6301ffc9a760e01b1490508361085d565b602435906001600160a01b03821682036103ad57565b600435906001600160a01b03821682036103ad57565b9181601f840112156103ad578235916001600160401b0383116103ad57602083818601950101116103ad57565b90601f801991011681019081106001600160401b0382111761071057604052565b335f9081527fad3228b676f7d3cd4284a5443f17f1962b36e491b30a40b2405849e597ba5fb5602052604090205460ff161561092757565b63e2517d3f60e01b5f52336004525f60245260445ffd5b5f8181526020818152604080832033845290915290205460ff16156109605750565b63e2517d3f60e01b5f523360045260245260445ffd5b5f818152602081815260408083206001600160a01b038616845290915290205460ff166109f8575f818152602081815260408083206001600160a01b0395909516808452949091528120805460ff19166001179055339291907f2f8788117e7eff1d82e926ec794901d17c78024a50270940304540a733656f0d9080a4600190565b50505f90565b5f818152602081815260408083206001600160a01b038616845290915290205460ff16156109f8575f818152602081815260408083206001600160a01b0395909516808452949091528120805460ff19169055339291907ff6391f5c32d9c69d2a47ea670b442974b53935d1edc7fd64eb21e047a839171b9080a4600190565b8151919060418303610aae57610aa79250602082015190606060408401519301515f1a90610b2c565b9192909190565b50505f9160029190565b6004811015610b185780610aca575050565b60018103610ae15763f645eedf60e01b5f5260045ffd5b60028103610afc575063fce698f760e01b5f5260045260245ffd5b600314610b065750565b6335e2f38360e21b5f5260045260245ffd5b634e487b7160e01b5f52602160045260245ffd5b91906fa2a8918ca85bafe22016d0b997e4df60600160ff1b038411610b99579160209360809260ff5f9560405194855216868401526040830152606082015282805260015afa156103a2575f516001600160a01b03811615610b8f57905f905f90565b505f906001905f90565b5050505f916003919056fea26469706673582212209baed26c576ff021c1185de1c02a3ad0ba4bb40099f3e73647cbfece573f1d2c64736f6c634300081e0033ad3228b676f7d3cd4284a5443f17f1962b36e491b30a40b2405849e597ba5fb5000000000000000000000000397a5f7f3dbd538f23de225b51f532c34448da9b0000000000000000000000009ec3f0d76a6d3847d86374c791c6e170cad9518d",
        "nonce": "0x9",
        "chainId": "0xaa36a7"
      },
      "additionalContracts": [],
      "isFixedGasLimit": false
    },
    {
      "hash": "0x25479cc1f4d6bc1457e65d039afc64e76a37278fab42b4ef150f28fc1baa6565",
      "transactionType": "CALL",
      "contractName": "NitroVerifier",
      "contractAddress": "0xba3d3b60b6f462aa3fb2d63f8b610fa8825c3019",
      "function": "grantRole(bytes32,address)",
      "arguments": [
        "0x8ef080a880cc993d59a173671ed4d7390170750145f20a40ac3d6873cd70a643",
        "0x4b6b03635aC1574E4966DD7A7f24d6FeB1bd3Be6"
      ],
      "transaction": {
        "from": "0x9ec3f0d76a6d3847d86374c791c6e170cad9518d",
        "to": "0xba3d3b60b6f462aa3fb2d63f8b610fa8825c3019",
        "gas": "0x11408",
        "value": "0x0",
        "input": "0x2f2ff15d8ef080a880cc993d59a173671ed4d7390170750145f20a40ac3d6873cd70a6430000000000000000000000004b6b03635ac1574e4966dd7a7f24d6feb1bd3be6",
        "nonce": "0xa",
        "chainId": "0xaa36a7"
      },
      "additionalContracts": [],
      "isFixedGasLimit": false
    },
    {
      "hash": "0xfcd1b9fd4381af4b4516ae3ae04ac8d35704a388491eb30f2b361bf4c18f2dc6",
      "transactionType": "CALL",
      "contractName": "NitroVerifier",
      "contractAddress": "0xba3d3b60b6f462aa3fb2d63f8b610fa8825c3019",
      "function": "grantRole(bytes32,address)",
      "arguments": [
        "0x8ef080a880cc993d59a173671ed4d7390170750145f20a40ac3d6873cd70a643",
        "0x9ec3f0d76A6d3847d86374c791C6E170CAd9518D"
      ],
      "transaction": {
        "from": "0x9ec3f0d76a6d3847d86374c791c6e170cad9518d",
        "to": "0xba3d3b60b6f462aa3fb2d63f8b610fa8825c3019",
        "gas": "0x11408",
        "value": "0x0",
        "input": "0x2f2ff15d8ef080a880cc993d59a173671ed4d7390170750145f20a40ac3d6873cd70a6430000000000000000000000009ec3f0d76a6d3847d86374c791c6e170cad9518d",
        "nonce": "0xb",
        "chainId": "0xaa36a7"
      },
      "additionalContracts": [],
      "isFixedGasLimit": false
    }
  ],
  "receipts": [
    {
      "status": "0x1",
      "cumulativeGasUsed": "0xce24b1",
      "logs": [
        {
          "address": "0xba3d3b60b6f462aa3fb2d63f8b610fa8825c3019",
          "topics": [
            "0x2f8788117e7eff1d82e926ec794901d17c78024a50270940304540a733656f0d",
            "0x0000000000000000000000000000000000000000000000000000000000000000",
            "0x0000000000000000000000009ec3f0d76a6d3847d86374c791c6e170cad9518d",
            "0x0000000000000000000000009ec3f0d76a6d3847d86374c791c6e170cad9518d"
          ],
          "data": "0x",
          "blockHash": "0xe77edc71efa15d4783e1e488a2bb15e0d2a35a1e7bed25e1926762b897410c83",
          "blockNumber": "0xa2ee58",
          "blockTimestamp": "0x69e22a8c",
          "transactionHash": "0xfcd1b9fd4381af4b4516ae3ae04ac8d35704a388491eb30f2b361bf4c18f2dc6",
          "transactionIndex": "0x4b",
          "logIndex": "0x1de",
          "removed": false
        }
      ],
      "logsBloom": "0x00000004000000000000000001000000000000000000000000000000000000000000000000000000000000000000000000000000000000000000000000000000000000000000000000000000000000000000000000000000000000000000000000000000020000000000000000000800000000000000000000000020000000000000000000000000000000000000000000000000000000000000000000000040000000000000000000010000000000000000000000000000001000000000000000000000000000000000000000000000000000000000000100000000000020000000000000000000000000000000000000001000000000000020000000000000",
      "type": "0x2",
      "transactionHash": "0xfcd1b9fd4381af4b4516ae3ae04ac8d35704a388491eb30f2b361bf4c18f2dc6",
      "transactionIndex": "0x4b",
      "blockHash": "0xe77edc71efa15d4783e1e488a2bb15e0d2a35a1e7bed25e1926762b897410c83",
      "blockNumber": "0xa2ee58",
      "gasUsed": "0xb4ae5",
      "effectiveGasPrice": "0x16b6025",
      "from": "0x9ec3f0d76a6d3847d86374c791c6e170cad9518d",
      "to": null,
      "contractAddress": "0xba3d3b60b6f462aa3fb2d63f8b610fa8825c3019"
    },
    {
      "status": "0x1",
      "cumulativeGasUsed": "0xd62f72",
      "logs": [
        {
          "address": "0xba3d3b60b6f462aa3fb2d63f8b610fa8825c3019",
          "topics": [
            "0x2f8788117e7eff1d82e926ec794901d17c78024a50270940304540a733656f0d",
            "0x8ef080a880cc993d59a173671ed4d7390170750145f20a40ac3d6873cd70a643",
            "0x0000000000000000000000004b6b03635ac1574e4966dd7a7f24d6feb1bd3be6",
            "0x0000000000000000000000009ec3f0d76a6d3847d86374c791c6e170cad9518d"
          ],
          "data": "0x",
          "blockHash": "0xe77edc71efa15d4783e1e488a2bb15e0d2a35a1e7bed25e1926762b897410c83",
          "blockNumber": "0xa2ee58",
          "blockTimestamp": "0x69e22a8c",
          "transactionHash": "0x25479cc1f4d6bc1457e65d039afc64e76a37278fab42b4ef150f28fc1baa6565",
          "transactionIndex": "0x4e",
          "logIndex": "0x1f8",
          "removed": false
        }
      ],
      "logsBloom": "0x00000004000000000000000001000000000000000000000000000000000000000000000000000000000000000000000000000000000000000000000000000000000000000000000000000000000000000000000002000000000000000000000000000000000000000000000000000000000000000000000000000020000000000000000000000000000000000000000000000000000000000000000000000040000000000000000000010000000000001040000000000000001000000000000000000000000000000000080000000000000000000004000100000000000000000000000000000000000000000000000000001000000000000020008000000000",
      "type": "0x2",
      "transactionHash": "0x25479cc1f4d6bc1457e65d039afc64e76a37278fab42b4ef150f28fc1baa6565",
      "transactionIndex": "0x4e",
      "blockHash": "0xe77edc71efa15d4783e1e488a2bb15e0d2a35a1e7bed25e1926762b897410c83",
      "blockNumber": "0xa2ee58",
      "gasUsed": "0xc7d8",
      "effectiveGasPrice": "0x16b6025",
      "from": "0x9ec3f0d76a6d3847d86374c791c6e170cad9518d",
      "to": "0xba3d3b60b6f462aa3fb2d63f8b610fa8825c3019",
      "contractAddress": null
    },
    {
      "status": "0x1",
      "cumulativeGasUsed": "0xd6f74a",
      "logs": [
        {
          "address": "0xba3d3b60b6f462aa3fb2d63f8b610fa8825c3019",
          "topics": [
            "0x2f8788117e7eff1d82e926ec794901d17c78024a50270940304540a733656f0d",
            "0x8ef080a880cc993d59a173671ed4d7390170750145f20a40ac3d6873cd70a643",
            "0x0000000000000000000000009ec3f0d76a6d3847d86374c791c6e170cad9518d",
            "0x0000000000000000000000009ec3f0d76a6d3847d86374c791c6e170cad9518d"
          ],
          "data": "0x",
          "blockHash": "0xe77edc71efa15d4783e1e488a2bb15e0d2a35a1e7bed25e1926762b897410c83",
          "blockNumber": "0xa2ee58",
          "blockTimestamp": "0x69e22a8c",
          "transactionHash": "0x49712d91bcac195303cb3b49ce16c47e6c419f1d8c5cbfe638e0b7d595290ae9",
          "transactionIndex": "0x4f",
          "logIndex": "0x1f9",
          "removed": false
        }
      ],
      "logsBloom": "0x00000004000000000000000001000000000000000000000000000000000000000000000000000000000000000000000000000000000000000000000000000000000000000000000000000000000000000000000002000000000000000000000000000000000000000000000000000000000000000000000000000020000000000000000000000000000000000000000000000000000000000000000000000040000000000000000000010000000000000000000000000000001000000000000000000000000000000000000000000000000000000004000100000000000000000000000000000000000000000000000000001000000000000020008000000000",
      "type": "0x2",
      "transactionHash": "0x49712d91bcac195303cb3b49ce16c47e6c419f1d8c5cbfe638e0b7d595290ae9",
      "transactionIndex": "0x4f",
      "blockHash": "0xe77edc71efa15d4783e1e488a2bb15e0d2a35a1e7bed25e1926762b897410c83",
      "blockNumber": "0xa2ee58",
      "gasUsed": "0xc7d8",
      "effectiveGasPrice": "0x16b6025",
      "from": "0x9ec3f0d76a6d3847d86374c791c6e170cad9518d",
      "to": "0xba3d3b60b6f462aa3fb2d63f8b610fa8825c3019",
      "contractAddress": null
    }
  ],
  "libraries": [],
  "pending": [],
  "returns": {},
  "timestamp": 1776429709201,
  "chain": 11155111,
  "commit": "2dedaa6"
}