{
  "transactions": [
    {
      "hash": "0xa56a83ffb5ed4536743391e6e73651121b3a7ddc7a0678f23ef1be0e95fcacd8",
      "transactionType": "CALL",
      "contractName": null,
      "contractAddress": "0x9cacf613fc29015893728563f423fd26dcdb8ddc",
      "function": "setOtherBridge(address)",
      "arguments": [
        "0x9CAcf613fC29015893728563f423fD26dCdB8Ddc"
      ],
      "transaction": {
        "from": "0x482582979c9125abab5a06f0e196e8f4015bf77a",
        "to": "0x9cacf613fc29015893728563f423fd26dcdb8ddc",
        "gas": "0x12d9a",
        "value": "0x0",
        "input": "0x23a6b4ce0000000000000000000000009cacf613fc29015893728563f423fd26dcdb8ddc",
        "nonce": "0x13",
        "chainId": "0xaa36a7"
      },
      "additionalContracts": [],
      "isFixedGasLimit": false
    },
    {
      "hash": "0x64bf1d23abb2579a7b1f872557c55cce4b8a25c4877332911022e291afce21b7",
      "transactionType": "CALL",
      "contractName": null,
      "contractAddress": "0x9cacf613fc29015893728563f423fd26dcdb8ddc",
      "function": "setExecuteGasLimit(uint256)",
      "arguments": [
        "500000"
      ],
      "transaction": {
        "from": "0x482582979c9125abab5a06f0e196e8f4015bf77a",
        "to": "0x9cacf613fc29015893728563f423fd26dcdb8ddc",
        "gas": "0x11dbc",
        "value": "0x0",
        "input": "0xaf0e0d7e000000000000000000000000000000000000000000000000000000000007a120",
        "nonce": "0x14",
        "chainId": "0xaa36a7"
      },
      "additionalContracts": [],
      "isFixedGasLimit": false
    },
    {
      "hash": "0x96ba303b7f07a398c1fb424574973784e90b07436851299ddecd989a45e1fca0",
      "transactionType": "CALL",
      "contractName": null,
      "contractAddress": "0xfd4c62647a34ff6d6802092f5fbe176099223b61",
      "function": "setOtherSide(bool,address,uint256,address,address,address)",
      "arguments": [
        "true",
        "0xFD4C62647A34FF6d6802092F5fbe176099223B61",
        "20994",
        "0x0000000000000000000000000000000000520008",
        "0xF6d49E874Cb64b8ee56D6F99BD340134B30AB225",
        "0x0000000000000000000000000000000000000000"
      ],
      "transaction": {
        "from": "0x482582979c9125abab5a06f0e196e8f4015bf77a",
        "to": "0xfd4c62647a34ff6d6802092f5fbe176099223b61",
        "gas": "0x35d3e",
        "value": "0x0",
        "input": "0x0a4f1d130000000000000000000000000000000000000000000000000000000000000001000000000000000000000000fd4c62647a34ff6d6802092f5fbe176099223b6100000000000000000000000000000000000000000000000000000000000052020000000000000000000000000000000000000000000000000000000000520008000000000000000000000000f6d49e874cb64b8ee56d6f99bd340134b30ab2250000000000000000000000000000000000000000000000000000000000000000",
        "nonce": "0x15",
        "chainId": "0xaa36a7"
      },
      "additionalContracts": [],
      "isFixedGasLimit": false
    },
    {
      "hash": "0x643b57ba13d0268f6f15fffa9872f6122114f25e318a9d075c151feabb514b4b",
      "transactionType": "CALL",
      "contractName": null,
      "contractAddress": "0x8976ca4e0c8467097da675399fb7db454a1b56dd",
      "function": "setOtherSideGateway(address)",
      "arguments": [
        "0x8976Ca4E0c8467097Da675399fB7DB454a1b56dd"
      ],
      "transaction": {
        "from": "0x482582979c9125abab5a06f0e196e8f4015bf77a",
        "to": "0x8976ca4e0c8467097da675399fb7db454a1b56dd",
        "gas": "0x11d0a",
        "value": "0x0",
        "input": "0xc7bec6a30000000000000000000000008976ca4e0c8467097da675399fb7db454a1b56dd",
        "nonce": "0x16",
        "chainId": "0xaa36a7"
      },
      "additionalContracts": [],
      "isFixedGasLimit": false
    }
  ],
  "receipts": [
    {
      "status": "0x1",
      "cumulativeGasUsed": "0x1be06d0",
      "logs": [
        {
          "address": "0x9cacf613fc29015893728563f423fd26dcdb8ddc",
          "topics": [
            "0x211e4f7fff66bb96e0b5f165a56f828f6f417f5184ce5649d6100652603c33cc",
            "0x0000000000000000000000000000000000000000000000000000000000000000",
            "0x0000000000000000000000009cacf613fc29015893728563f423fd26dcdb8ddc"
          ],
          "data": "0x",
          "blockHash": "0x5004c2266d54365ba87d04ea5fc346939b9e230013225fe78050dfb06917b6ef",
          "blockNumber": "0xa2c0e7",
          "blockTimestamp": "0x69dfcfd4",
          "transactionHash": "0x96ba303b7f07a398c1fb424574973784e90b07436851299ddecd989a45e1fca0",
          "transactionIndex": "0x89",
          "logIndex": "0x408",
          "removed": false
        }
      ],
      "logsBloom": "0x00000000000000000000000000000000000000000000000000000000000000000000000000002000000200000000000000000800000000000000000000000400000000000080000000000000000000800000000000000000000000000000000000000000020000000000000000000800000000000000000000000000000800000000000000000000000000000000000000000000000000000000000000000000000000000000000000000000000020000000000000000000000000000020000000000000000000000000000000000000000000000000000000000000000020000000000000000000000000000000000000000000000000000000000000000000",
      "type": "0x2",
      "transactionHash": "0x96ba303b7f07a398c1fb424574973784e90b07436851299ddecd989a45e1fca0",
      "transactionIndex": "0x89",
      "blockHash": "0x5004c2266d54365ba87d04ea5fc346939b9e230013225fe78050dfb06917b6ef",
      "blockNumber": "0xa2c0e7",
      "gasUsed": "0xce3a",
      "effectiveGasPrice": "0x1414404",
      "from": "0x482582979c9125abab5a06f0e196e8f4015bf77a",
      "to": "0x9cacf613fc29015893728563f423fd26dcdb8ddc",
      "contractAddress": null
    },
    {
      "status": "0x1",
      "cumulativeGasUsed": "0x1bed5af",
      "logs": [
        {
          "address": "0x9cacf613fc29015893728563f423fd26dcdb8ddc",
          "topics": [
            "0x5573cf18a2c9a4fb4280339b21818fbd19ef5a877f3de90c8b76bf3b76323976",
            "0x0000000000000000000000000000000000000000000000000000000000000000",
            "0x000000000000000000000000000000000000000000000000000000000007a120"
          ],
          "data": "0x",
          "blockHash": "0x5004c2266d54365ba87d04ea5fc346939b9e230013225fe78050dfb06917b6ef",
          "blockNumber": "0xa2c0e7",
          "blockTimestamp": "0x69dfcfd4",
          "transactionHash": "0x643b57ba13d0268f6f15fffa9872f6122114f25e318a9d075c151feabb514b4b",
          "transactionIndex": "0x8a",
          "logIndex": "0x409",
          "removed": false
        }
      ],
      "logsBloom": "0x00000004000000000000000000000000000000000000000000040000000000000000000010002000000000000000000000000000000000000000000000000000000000000080000000000000000000800000000000000000000000000000000000000000020000000000000000000800000000000000000000000000000000000000000000000000000000000000002000000000000000000000000000000000000000000000000000000000400000000000000000000000000000040000000000000000000000000000000000000000000000000000000000000000000020000000000000000000000000000000000000000000000000000000000000000000",
      "type": "0x2",
      "transactionHash": "0x643b57ba13d0268f6f15fffa9872f6122114f25e318a9d075c151feabb514b4b",
      "transactionIndex": "0x8a",
      "blockHash": "0x5004c2266d54365ba87d04ea5fc346939b9e230013225fe78050dfb06917b6ef",
      "blockNumber": "0xa2c0e7",
      "gasUsed": "0xcedf",
      "effectiveGasPrice": "0x1414404",
      "from": "0x482582979c9125abab5a06f0e196e8f4015bf77a",
      "to": "0x9cacf613fc29015893728563f423fd26dcdb8ddc",
      "contractAddress": null
    },
    {
      "status": "0x1",
      "cumulativeGasUsed": "0x1c2a720",
      "logs": [
        {
          "address": "0xfd4c62647a34ff6d6802092f5fbe176099223b61",
          "topics": [
            "0xf34853a4118ce86d5d149d1ed871ed6bdc92661601e42e627365b881bd64b3d5",
            "0x0000000000000000000000000000000000000000000000000000000000000000",
            "0x000000000000000000000000fd4c62647a34ff6d6802092f5fbe176099223b61",
            "0x0000000000000000000000000000000000000000000000000000000000000000"
          ],
          "data": "0x00000000000000000000000000000000000000000000000000000000005200080000000000000000000000000000000000000000000000000000000000000000000000000000000000000000f6d49e874cb64b8ee56d6f99bd340134b30ab22500000000000000000000000000000000000000000000000000000000000000000000000000000000000000000000000000000000000000000000000000000000",
          "blockHash": "0x5004c2266d54365ba87d04ea5fc346939b9e230013225fe78050dfb06917b6ef",
          "blockNumber": "0xa2c0e7",
          "blockTimestamp": "0x69dfcfd4",
          "transactionHash": "0xa56a83ffb5ed4536743391e6e73651121b3a7ddc7a0678f23ef1be0e95fcacd8",
          "transactionIndex": "0x8c",
          "logIndex": "0x40f",
          "removed": false
        },
        {
          "address": "0xfd4c62647a34ff6d6802092f5fbe176099223b61",
          "topics": [
            "0xb4804f90ec8c6d4ce25b8c466f1b48f0b1b5c9e0fb0ad5579a05deef45b2b336",
            "0x0000000000000000000000000000000000000000000000000000000000000000",
            "0x000000000000000000000000fd4c62647a34ff6d6802092f5fbe176099223b61"
          ],
          "data": "0x",
          "blockHash": "0x5004c2266d54365ba87d04ea5fc346939b9e230013225fe78050dfb06917b6ef",
          "blockNumber": "0xa2c0e7",
          "blockTimestamp": "0x69dfcfd4",
          "transactionHash": "0xa56a83ffb5ed4536743391e6e73651121b3a7ddc7a0678f23ef1be0e95fcacd8",
          "transactionIndex": "0x8c",
          "logIndex": "0x410",
          "removed": false
        },
        {
          "address": "0xfd4c62647a34ff6d6802092f5fbe176099223b61",
          "topics": [
            "0x5c420814216b1e230b0e65ec8d7c6d0869c30ba9597199c046df214d8e85a8a0",
            "0x0000000000000000000000000000000000000000000000000000000000000000",
            "0x0000000000000000000000000000000000000000000000000000000000005202"
          ],
          "data": "0x",
          "blockHash": "0x5004c2266d54365ba87d04ea5fc346939b9e230013225fe78050dfb06917b6ef",
          "blockNumber": "0xa2c0e7",
          "blockTimestamp": "0x69dfcfd4",
          "transactionHash": "0xa56a83ffb5ed4536743391e6e73651121b3a7ddc7a0678f23ef1be0e95fcacd8",
          "transactionIndex": "0x8c",
          "logIndex": "0x411",
          "removed": false
        }
      ],
      "logsBloom": "0x00000000000000000000000000000000000000000000000000000000000000200010000000000000000000000000080000000000000000000000000000000000080000000000000000000000200000000000000000000000000000000000000000000080020000000000000000000800000000000040000000000000000000000000000000000000000000000000000000000000000000100000000100000000000000000000000000000000080000000000000000000000000000000000200000040000000000000100000000800000000000000000000800000000000020041000000000200000000000000000000000000000000000000000000000000000",
      "type": "0x2",
      "transactionHash": "0xa56a83ffb5ed4536743391e6e73651121b3a7ddc7a0678f23ef1be0e95fcacd8",
      "transactionIndex": "0x8c",
      "blockHash": "0x5004c2266d54365ba87d04ea5fc346939b9e230013225fe78050dfb06917b6ef",
      "blockNumber": "0xa2c0e7",
      "gasUsed": "0x24ce3",
      "effectiveGasPrice": "0x1414404",
      "from": "0x482582979c9125abab5a06f0e196e8f4015bf77a",
      "to": "0xfd4c62647a34ff6d6802092f5fbe176099223b61",
      "contractAddress": null
    },
    {
      "status": "0x1",
      "cumulativeGasUsed": "0x1c3757e",
      "logs": [
        {
          "address": "0x8976ca4e0c8467097da675399fb7db454a1b56dd",
          "topics": [
            "0xb4804f90ec8c6d4ce25b8c466f1b48f0b1b5c9e0fb0ad5579a05deef45b2b336",
            "0x0000000000000000000000000000000000000000000000000000000000000000",
            "0x0000000000000000000000008976ca4e0c8467097da675399fb7db454a1b56dd"
          ],
          "data": "0x",
          "blockHash": "0x5004c2266d54365ba87d04ea5fc346939b9e230013225fe78050dfb06917b6ef",
          "blockNumber": "0xa2c0e7",
          "blockTimestamp": "0x69dfcfd4",
          "transactionHash": "0x64bf1d23abb2579a7b1f872557c55cce4b8a25c4877332911022e291afce21b7",
          "transactionIndex": "0x8d",
          "logIndex": "0x412",
          "removed": false
        }
      ],
      "logsBloom": "0x00000000000000000080000000000000000000000000000000000000000000000010000000000080000000000000000000000000000000000000000000000000000020000000000000000000000000000000100000000000000000000000000000000001020000000000000000000800000000000000000000000000000000000000000000000000000000000000000000000000000000000000000000000000000000000000000000000000000000000000000000000000000000000000000000040000000000000100000000000000000000000000000000000000000020000000000000000000000000000200000000000000000000000000000000000000",
      "type": "0x2",
      "transactionHash": "0x64bf1d23abb2579a7b1f872557c55cce4b8a25c4877332911022e291afce21b7",
      "transactionIndex": "0x8d",
      "blockHash": "0x5004c2266d54365ba87d04ea5fc346939b9e230013225fe78050dfb06917b6ef",
      "blockNumber": "0xa2c0e7",
      "gasUsed": "0xce5e",
      "effectiveGasPrice": "0x1414404",
      "from": "0x482582979c9125abab5a06f0e196e8f4015bf77a",
      "to": "0x8976ca4e0c8467097da675399fb7db454a1b56dd",
      "contractAddress": null
    }
  ],
  "libraries": [],
  "pending": [],
  "returns": {},
  "timestamp": 1776275413820,
  "chain": 11155111,
  "commit": "66bb4bb"
}